{
  "_format": "hh-sol-artifact-1",
  "contractName": "SafeToken",
  "sourceName": "contracts/SafeToken.sol",
  "abi": [
    {
      "inputs": [],
      "stateMutability": "nonpayable",
      "type": "constructor"
    },
    {
      "anonymous": false,
      "inputs": [
        {
          "indexed": true,
          "internalType": "address",
          "name": "owner",
          "type": "address"
        },
        {
          "indexed": true,
          "internalType": "address",
          "name": "spender",
          "type": "address"
        },
        {
          "indexed": false,
          "internalType": "uint256",
          "name": "value",
          "type": "uint256"
        }
      ],
      "name": "Approval",
      "type": "event"
    },
    {
      "anonymous": false,
      "inputs": [
        {
          "indexed": true,
          "internalType": "address",
          "name": "from",
          "type": "address"
        },
        {
          "indexed": true,
          "internalType": "address",
          "name": "to",
          "type": "address"
        },
        {
          "indexed": false,
          "internalType": "uint256",
          "name": "value",
          "type": "uint256"
        }
      ],
      "name": "Transfer",
      "type": "event"
    },
    {
      "inputs": [
        {
          "internalType": "address",
          "name": "owner",
          "type": "address"
        },
        {
          "internalType": "address",
          "name": "spender",
          "type": "address"
        }
      ],
      "name": "allowance",
      "outputs": [
        {
          "internalType": "uint256",
          "name": "",
          "type": "uint256"
        }
      ],
      "stateMutability": "view",
      "type": "function"
    },
    {
      "inputs": [
        {
          "internalType": "address",
          "name": "spender",
          "type": "address"
        },
        {
          "internalType": "uint256",
          "name": "amount",
          "type": "uint256"
        }
      ],
      "name": "approve",
      "outputs": [
        {
          "internalType": "bool",
          "name": "",
          "type": "bool"
        }
      ],
      "stateMutability": "nonpayable",
      "type": "function"
    },
    {
      "inputs": [
        {
          "internalType": "address",
          "name": "account",
          "type": "address"
        }
      ],
      "name": "balanceOf",
      "outputs": [
        {
          "internalType": "uint256",
          "name": "",
          "type": "uint256"
        }
      ],
      "stateMutability": "view",
      "type": "function"
    },
    {
      "inputs": [
        {
          "internalType": "uint256",
          "name": "amount",
          "type": "uint256"
        }
      ],
      "name": "burn",
      "outputs": [],
      "stateMutability": "nonpayable",
      "type": "function"
    },
    {
      "inputs": [
        {
          "internalType": "address",
          "name": "newOwner",
          "type": "address"
        }
      ],
      "name": "changeOwner",
      "outputs": [],
      "stateMutability": "nonpayable",
      "type": "function"
    },
    {
      "inputs": [],
      "name": "decimals",
      "outputs": [
        {
          "internalType": "uint8",
          "name": "",
          "type": "uint8"
        }
      ],
      "stateMutability": "view",
      "type": "function"
    },
    {
      "inputs": [
        {
          "internalType": "address",
          "name": "spender",
          "type": "address"
        },
        {
          "internalType": "uint256",
          "name": "subtractedValue",
          "type": "uint256"
        }
      ],
      "name": "decreaseAllowance",
      "outputs": [
        {
          "internalType": "bool",
          "name": "",
          "type": "bool"
        }
      ],
      "stateMutability": "nonpayable",
      "type": "function"
    },
    {
      "inputs": [
        {
          "internalType": "address",
          "name": "spender",
          "type": "address"
        },
        {
          "internalType": "uint256",
          "name": "addedValue",
          "type": "uint256"
        }
      ],
      "name": "increaseAllowance",
      "outputs": [
        {
          "internalType": "bool",
          "name": "",
          "type": "bool"
        }
      ],
      "stateMutability": "nonpayable",
      "type": "function"
    },
    {
      "inputs": [
        {
          "internalType": "uint256",
          "name": "amount",
          "type": "uint256"
        }
      ],
      "name": "mint",
      "outputs": [],
      "stateMutability": "nonpayable",
      "type": "function"
    },
    {
      "inputs": [],
      "name": "name",
      "outputs": [
        {
          "internalType": "string",
          "name": "",
          "type": "string"
        }
      ],
      "stateMutability": "view",
      "type": "function"
    },
    {
      "inputs": [],
      "name": "owner",
      "outputs": [
        {
          "internalType": "address",
          "name": "",
          "type": "address"
        }
      ],
      "stateMutability": "view",
      "type": "function"
    },
    {
      "inputs": [],
      "name": "symbol",
      "outputs": [
        {
          "internalType": "string",
          "name": "",
          "type": "string"
        }
      ],
      "stateMutability": "view",
      "type": "function"
    },
    {
      "inputs": [],
      "name": "totalSupply",
      "outputs": [
        {
          "internalType": "uint256",
          "name": "",
          "type": "uint256"
        }
      ],
      "stateMutability": "view",
      "type": "function"
    },
    {
      "inputs": [
        {
          "internalType": "address",
          "name": "to",
          "type": "address"
        },
        {
          "internalType": "uint256",
          "name": "amount",
          "type": "uint256"
        }
      ],
      "name": "transfer",
      "outputs": [
        {
          "internalType": "bool",
          "name": "",
          "type": "bool"
        }
      ],
      "stateMutability": "nonpayable",
      "type": "function"
    },
    {
      "inputs": [
        {
          "internalType": "address",
          "name": "from",
          "type": "address"
        },
        {
          "internalType": "address",
          "name": "to",
          "type": "address"
        },
        {
          "internalType": "uint256",
          "name": "amount",
          "type": "uint256"
        }
      ],
      "name": "transferFrom",
      "outputs": [
        {
          "internalType": "bool",
          "name": "",
          "type": "bool"
        }
      ],
      "stateMutability": "nonpayable",
      "type": "function"
    }
  ],
  "bytecode": "0x60806040523480156200001157600080fd5b506040518060400160405280600981526020017f53616665546f6b656e00000000000000000000000000000000000000000000008152506040518060400160405280600481526020017f5341464500000000000000000000000000000000000000000000000000000000815250816003908051906020019062000096929190620002b8565b508060049080519060200190620000af929190620002b8565b505050620000f033620000c76200013760201b60201c565b600a620000d59190620004c3565b6103e8620000e4919062000600565b6200014060201b60201c565b33600560006101000a81548173ffffffffffffffffffffffffffffffffffffffff021916908373ffffffffffffffffffffffffffffffffffffffff16021790555062000719565b60006012905090565b600073ffffffffffffffffffffffffffffffffffffffff168273ffffffffffffffffffffffffffffffffffffffff161415620001b3576040517f08c379a0000000000000000000000000000000000000000000000000000000008152600401620001aa90620003bb565b60405180910390fd5b620001c760008383620002ae60201b60201c565b8060026000828254620001db91906200040b565b92505081905550806000808473ffffffffffffffffffffffffffffffffffffffff1673ffffffffffffffffffffffffffffffffffffffff168152602001908152602001600020600082825401925050819055508173ffffffffffffffffffffffffffffffffffffffff16600073ffffffffffffffffffffffffffffffffffffffff167fddf252ad1be2c89b69c2b068fc378daa952ba7f163c4a11628f55a4df523b3ef836040516200028e9190620003dd565b60405180910390a3620002aa60008383620002b360201b60201c565b5050565b505050565b505050565b828054620002c69062000678565b90600052602060002090601f016020900481019282620002ea576000855562000336565b82601f106200030557805160ff191683800117855562000336565b8280016001018555821562000336579182015b828111156200033557825182559160200191906001019062000318565b5b50905062000345919062000349565b5090565b5b80821115620003645760008160009055506001016200034a565b5090565b600062000377601f83620003fa565b91507f45524332303a206d696e7420746f20746865207a65726f2061646472657373006000830152602082019050919050565b620003b58162000661565b82525050565b60006020820190508181036000830152620003d68162000368565b9050919050565b6000602082019050620003f46000830184620003aa565b92915050565b600082825260208201905092915050565b6000620004188262000661565b9150620004258362000661565b9250827fffffffffffffffffffffffffffffffffffffffffffffffffffffffffffffffff038211156200045d576200045c620006ae565b5b828201905092915050565b6000808291508390505b6001851115620004ba57808604811115620004925762000491620006ae565b5b6001851615620004a25780820291505b8081029050620004b2856200070c565b945062000472565b94509492505050565b6000620004d08262000661565b9150620004dd836200066b565b92506200050c7fffffffffffffffffffffffffffffffffffffffffffffffffffffffffffffffff848462000514565b905092915050565b600082620005265760019050620005f9565b81620005365760009050620005f9565b81600181146200054f57600281146200055a5762000590565b6001915050620005f9565b60ff8411156200056f576200056e620006ae565b5b8360020a915084821115620005895762000588620006ae565b5b50620005f9565b5060208310610133831016604e8410600b8410161715620005ca5782820a905083811115620005c457620005c3620006ae565b5b620005f9565b620005d9848484600162000468565b92509050818404811115620005f357620005f2620006ae565b5b81810290505b9392505050565b60006200060d8262000661565b91506200061a8362000661565b9250817fffffffffffffffffffffffffffffffffffffffffffffffffffffffffffffffff0483118215151615620006565762000655620006ae565b5b828202905092915050565b6000819050919050565b600060ff82169050919050565b600060028204905060018216806200069157607f821691505b60208210811415620006a857620006a7620006dd565b5b50919050565b7f4e487b7100000000000000000000000000000000000000000000000000000000600052601160045260246000fd5b7f4e487b7100000000000000000000000000000000000000000000000000000000600052602260045260246000fd5b60008160011c9050919050565b611a5280620007296000396000f3fe608060405234801561001057600080fd5b50600436106100f55760003560e01c806370a0823111610097578063a457c2d711610066578063a457c2d714610288578063a6f9dae1146102b8578063a9059cbb146102d4578063dd62ed3e14610304576100f5565b806370a08231146102005780638da5cb5b1461023057806395d89b411461024e578063a0712d681461026c576100f5565b806323b872dd116100d357806323b872dd14610166578063313ce5671461019657806339509351146101b457806342966c68146101e4576100f5565b806306fdde03146100fa578063095ea7b31461011857806318160ddd14610148575b600080fd5b610102610334565b60405161010f919061169b565b60405180910390f35b610132600480360381019061012d9190611175565b6103c6565b60405161013f9190611680565b60405180910390f35b6101506103e9565b60405161015d919061181d565b60405180910390f35b610180600480360381019061017b9190611126565b6103f3565b60405161018d9190611680565b60405180910390f35b61019e610422565b6040516101ab9190611838565b60405180910390f35b6101ce60048036038101906101c99190611175565b61042b565b6040516101db9190611680565b60405180910390f35b6101fe60048036038101906101f991906111b1565b610462565b005b61021a600480360381019061021591906110c1565b6104ff565b604051610227919061181d565b60405180910390f35b610238610547565b6040516102459190611665565b60405180910390f35b61025661056d565b604051610263919061169b565b60405180910390f35b610286600480360381019061028191906111b1565b6105ff565b005b6102a2600480360381019061029d9190611175565b61069c565b6040516102af9190611680565b60405180910390f35b6102d260048036038101906102cd91906110c1565b610713565b005b6102ee60048036038101906102e99190611175565b6107e7565b6040516102fb9190611680565b60405180910390f35b61031e600480360381019061031991906110ea565b61080a565b60405161032b919061181d565b60405180910390f35b6060600380546103439061194d565b80601f016020809104026020016040519081016040528092919081815260200182805461036f9061194d565b80156103bc5780601f10610391576101008083540402835291602001916103bc565b820191906000526020600020905b81548152906001019060200180831161039f57829003601f168201915b5050505050905090565b6000806103d1610891565b90506103de818585610899565b600191505092915050565b6000600254905090565b6000806103fe610891565b905061040b858285610a64565b610416858585610af0565b60019150509392505050565b60006012905090565b600080610436610891565b9050610457818585610448858961080a565b610452919061186f565b610899565b600191505092915050565b600560009054906101000a900473ffffffffffffffffffffffffffffffffffffffff1673ffffffffffffffffffffffffffffffffffffffff163373ffffffffffffffffffffffffffffffffffffffff16146104f2576040517f08c379a00000000000000000000000000000000000000000000000000000000081526004016104e9906116fd565b60405180910390fd5b6104fc3382610d68565b50565b60008060008373ffffffffffffffffffffffffffffffffffffffff1673ffffffffffffffffffffffffffffffffffffffff168152602001908152602001600020549050919050565b600560009054906101000a900473ffffffffffffffffffffffffffffffffffffffff1681565b60606004805461057c9061194d565b80601f01602080910402602001604051908101604052809291908181526020018280546105a89061194d565b80156105f55780601f106105ca576101008083540402835291602001916105f5565b820191906000526020600020905b8154815290600101906020018083116105d857829003601f168201915b5050505050905090565b600560009054906101000a900473ffffffffffffffffffffffffffffffffffffffff1673ffffffffffffffffffffffffffffffffffffffff163373ffffffffffffffffffffffffffffffffffffffff161461068f576040517f08c379a0000000000000000000000000000000000000000000000000000000008152600401610686906116fd565b60405180910390fd5b6106993382610f36565b50565b6000806106a7610891565b905060006106b5828661080a565b9050838110156106fa576040517f08c379a00000000000000000000000000000000000000000000000000000000081526004016106f1906117dd565b60405180910390fd5b6107078286868403610899565b60019250505092915050565b600560009054906101000a900473ffffffffffffffffffffffffffffffffffffffff1673ffffffffffffffffffffffffffffffffffffffff163373ffffffffffffffffffffffffffffffffffffffff16146107a3576040517f08c379a000000000000000000000000000000000000000000000000000000000815260040161079a906116fd565b60405180910390fd5b80600560006101000a81548173ffffffffffffffffffffffffffffffffffffffff021916908373ffffffffffffffffffffffffffffffffffffffff16021790555050565b6000806107f2610891565b90506107ff818585610af0565b600191505092915050565b6000600160008473ffffffffffffffffffffffffffffffffffffffff1673ffffffffffffffffffffffffffffffffffffffff16815260200190815260200160002060008373ffffffffffffffffffffffffffffffffffffffff1673ffffffffffffffffffffffffffffffffffffffff16815260200190815260200160002054905092915050565b600033905090565b600073ffffffffffffffffffffffffffffffffffffffff168373ffffffffffffffffffffffffffffffffffffffff161415610909576040517f08c379a0000000000000000000000000000000000000000000000000000000008152600401610900906117bd565b60405180910390fd5b600073ffffffffffffffffffffffffffffffffffffffff168273ffffffffffffffffffffffffffffffffffffffff161415610979576040517f08c379a00000000000000000000000000000000000000000000000000000000081526004016109709061171d565b60405180910390fd5b80600160008573ffffffffffffffffffffffffffffffffffffffff1673ffffffffffffffffffffffffffffffffffffffff16815260200190815260200160002060008473ffffffffffffffffffffffffffffffffffffffff1673ffffffffffffffffffffffffffffffffffffffff168152602001908152602001600020819055508173ffffffffffffffffffffffffffffffffffffffff168373ffffffffffffffffffffffffffffffffffffffff167f8c5be1e5ebec7d5bd14f71427d1e84f3dd0314c0f7b2291e5b200ac8c7c3b92583604051610a57919061181d565b60405180910390a3505050565b6000610a70848461080a565b90507fffffffffffffffffffffffffffffffffffffffffffffffffffffffffffffffff8114610aea5781811015610adc576040517f08c379a0000000000000000000000000000000000000000000000000000000008152600401610ad39061173d565b60405180910390fd5b610ae98484848403610899565b5b50505050565b600073ffffffffffffffffffffffffffffffffffffffff168373ffffffffffffffffffffffffffffffffffffffff161415610b60576040517f08c379a0000000000000000000000000000000000000000000000000000000008152600401610b579061179d565b60405180910390fd5b600073ffffffffffffffffffffffffffffffffffffffff168273ffffffffffffffffffffffffffffffffffffffff161415610bd0576040517f08c379a0000000000000000000000000000000000000000000000000000000008152600401610bc7906116bd565b60405180910390fd5b610bdb83838361108d565b60008060008573ffffffffffffffffffffffffffffffffffffffff1673ffffffffffffffffffffffffffffffffffffffff16815260200190815260200160002054905081811015610c61576040517f08c379a0000000000000000000000000000000000000000000000000000000008152600401610c589061175d565b60405180910390fd5b8181036000808673ffffffffffffffffffffffffffffffffffffffff1673ffffffffffffffffffffffffffffffffffffffff16815260200190815260200160002081905550816000808573ffffffffffffffffffffffffffffffffffffffff1673ffffffffffffffffffffffffffffffffffffffff168152602001908152602001600020600082825401925050819055508273ffffffffffffffffffffffffffffffffffffffff168473ffffffffffffffffffffffffffffffffffffffff167fddf252ad1be2c89b69c2b068fc378daa952ba7f163c4a11628f55a4df523b3ef84604051610d4f919061181d565b60405180910390a3610d62848484611092565b50505050565b600073ffffffffffffffffffffffffffffffffffffffff168273ffffffffffffffffffffffffffffffffffffffff161415610dd8576040517f08c379a0000000000000000000000000000000000000000000000000000000008152600401610dcf9061177d565b60405180910390fd5b610de48260008361108d565b60008060008473ffffffffffffffffffffffffffffffffffffffff1673ffffffffffffffffffffffffffffffffffffffff16815260200190815260200160002054905081811015610e6a576040517f08c379a0000000000000000000000000000000000000000000000000000000008152600401610e61906116dd565b60405180910390fd5b8181036000808573ffffffffffffffffffffffffffffffffffffffff1673ffffffffffffffffffffffffffffffffffffffff1681526020019081526020016000208190555081600260008282540392505081905550600073ffffffffffffffffffffffffffffffffffffffff168373ffffffffffffffffffffffffffffffffffffffff167fddf252ad1be2c89b69c2b068fc378daa952ba7f163c4a11628f55a4df523b3ef84604051610f1d919061181d565b60405180910390a3610f3183600084611092565b505050565b600073ffffffffffffffffffffffffffffffffffffffff168273ffffffffffffffffffffffffffffffffffffffff161415610fa6576040517f08c379a0000000000000000000000000000000000000000000000000000000008152600401610f9d906117fd565b60405180910390fd5b610fb26000838361108d565b8060026000828254610fc4919061186f565b92505081905550806000808473ffffffffffffffffffffffffffffffffffffffff1673ffffffffffffffffffffffffffffffffffffffff168152602001908152602001600020600082825401925050819055508173ffffffffffffffffffffffffffffffffffffffff16600073ffffffffffffffffffffffffffffffffffffffff167fddf252ad1be2c89b69c2b068fc378daa952ba7f163c4a11628f55a4df523b3ef83604051611075919061181d565b60405180910390a361108960008383611092565b5050565b505050565b505050565b6000813590506110a6816119ee565b92915050565b6000813590506110bb81611a05565b92915050565b6000602082840312156110d357600080fd5b60006110e184828501611097565b91505092915050565b600080604083850312156110fd57600080fd5b600061110b85828601611097565b925050602061111c85828601611097565b9150509250929050565b60008060006060848603121561113b57600080fd5b600061114986828701611097565b935050602061115a86828701611097565b925050604061116b868287016110ac565b9150509250925092565b6000806040838503121561118857600080fd5b600061119685828601611097565b92505060206111a7858286016110ac565b9150509250929050565b6000602082840312156111c357600080fd5b60006111d1848285016110ac565b91505092915050565b6111e3816118c5565b82525050565b6111f2816118d7565b82525050565b600061120382611853565b61120d818561185e565b935061121d81856020860161191a565b611226816119dd565b840191505092915050565b600061123e60238361185e565b91507f45524332303a207472616e7366657220746f20746865207a65726f206164647260008301527f65737300000000000000000000000000000000000000000000000000000000006020830152604082019050919050565b60006112a460228361185e565b91507f45524332303a206275726e20616d6f756e7420657863656564732062616c616e60008301527f63650000000000000000000000000000000000000000000000000000000000006020830152604082019050919050565b600061130a60218361185e565b91507f4f6e6c79206f776e65722063616e2063616c6c20746869732066756e6374696f60008301527f6e000000000000000000000000000000000000000000000000000000000000006020830152604082019050919050565b600061137060228361185e565b91507f45524332303a20617070726f766520746f20746865207a65726f20616464726560008301527f73730000000000000000000000000000000000000000000000000000000000006020830152604082019050919050565b60006113d6601d8361185e565b91507f45524332303a20696e73756666696369656e7420616c6c6f77616e63650000006000830152602082019050919050565b600061141660268361185e565b91507f45524332303a207472616e7366657220616d6f756e742065786365656473206260008301527f616c616e636500000000000000000000000000000000000000000000000000006020830152604082019050919050565b600061147c60218361185e565b91507f45524332303a206275726e2066726f6d20746865207a65726f2061646472657360008301527f73000000000000000000000000000000000000000000000000000000000000006020830152604082019050919050565b60006114e260258361185e565b91507f45524332303a207472616e736665722066726f6d20746865207a65726f20616460008301527f64726573730000000000000000000000000000000000000000000000000000006020830152604082019050919050565b600061154860248361185e565b91507f45524332303a20617070726f76652066726f6d20746865207a65726f2061646460008301527f72657373000000000000000000000000000000000000000000000000000000006020830152604082019050919050565b60006115ae60258361185e565b91507f45524332303a2064656372656173656420616c6c6f77616e63652062656c6f7760008301527f207a65726f0000000000000000000000000000000000000000000000000000006020830152604082019050919050565b6000611614601f8361185e565b91507f45524332303a206d696e7420746f20746865207a65726f2061646472657373006000830152602082019050919050565b61165081611903565b82525050565b61165f8161190d565b82525050565b600060208201905061167a60008301846111da565b92915050565b600060208201905061169560008301846111e9565b92915050565b600060208201905081810360008301526116b581846111f8565b905092915050565b600060208201905081810360008301526116d681611231565b9050919050565b600060208201905081810360008301526116f681611297565b9050919050565b60006020820190508181036000830152611716816112fd565b9050919050565b6000602082019050818103600083015261173681611363565b9050919050565b60006020820190508181036000830152611756816113c9565b9050919050565b6000602082019050818103600083015261177681611409565b9050919050565b600060208201905081810360008301526117968161146f565b9050919050565b600060208201905081810360008301526117b6816114d5565b9050919050565b600060208201905081810360008301526117d68161153b565b9050919050565b600060208201905081810360008301526117f6816115a1565b9050919050565b6000602082019050818103600083015261181681611607565b9050919050565b60006020820190506118326000830184611647565b92915050565b600060208201905061184d6000830184611656565b92915050565b600081519050919050565b600082825260208201905092915050565b600061187a82611903565b915061188583611903565b9250827fffffffffffffffffffffffffffffffffffffffffffffffffffffffffffffffff038211156118ba576118b961197f565b5b828201905092915050565b60006118d0826118e3565b9050919050565b60008115159050919050565b600073ffffffffffffffffffffffffffffffffffffffff82169050919050565b6000819050919050565b600060ff82169050919050565b60005b8381101561193857808201518184015260208101905061191d565b83811115611947576000848401525b50505050565b6000600282049050600182168061196557607f821691505b60208210811415611979576119786119ae565b5b50919050565b7f4e487b7100000000000000000000000000000000000000000000000000000000600052601160045260246000fd5b7f4e487b7100000000000000000000000000000000000000000000000000000000600052602260045260246000fd5b6000601f19601f8301169050919050565b6119f7816118c5565b8114611a0257600080fd5b50565b611a0e81611903565b8114611a1957600080fd5b5056fea26469706673582212201f08966fa9053933ea2d9ff7a6bc56946375310d87b80e7a9546efa846acd1fe64736f6c63430008000033",
  "linkReferences": {},
  "deployedLinkReferences": {}
}