{
  "_format": "hh-sol-artifact-1",
  "contractName": "FlashloanExecutor",
  "sourceName": "contracts/FlashloanExecutor.sol",
  "abi": [
    {
      "inputs": [
        {
          "internalType": "address",
          "name": "token_addr",
          "type": "address"
        },
        {
          "internalType": "address",
          "name": "nft_addr",
          "type": "address"
        },
        {
          "internalType": "address",
          "name": "bank_addr",
          "type": "address"
        }
      ],
      "stateMutability": "nonpayable",
      "type": "constructor"
    },
    {
      "inputs": [],
      "name": "BANK_ADDR",
      "outputs": [
        {
          "internalType": "address",
          "name": "",
          "type": "address"
        }
      ],
      "stateMutability": "view",
      "type": "function"
    },
    {
      "inputs": [],
      "name": "NFT_ARRD",
      "outputs": [
        {
          "internalType": "address",
          "name": "",
          "type": "address"
        }
      ],
      "stateMutability": "view",
      "type": "function"
    },
    {
      "inputs": [],
      "name": "OWNER",
      "outputs": [
        {
          "internalType": "address",
          "name": "",
          "type": "address"
        }
      ],
      "stateMutability": "view",
      "type": "function"
    },
    {
      "inputs": [],
      "name": "TOKEN_ADDR",
      "outputs": [
        {
          "internalType": "address",
          "name": "",
          "type": "address"
        }
      ],
      "stateMutability": "view",
      "type": "function"
    },
    {
      "inputs": [
        {
          "internalType": "uint256",
          "name": "amount",
          "type": "uint256"
        }
      ],
      "name": "executeWithMoney",
      "outputs": [],
      "stateMutability": "nonpayable",
      "type": "function"
    },
    {
      "inputs": [
        {
          "internalType": "uint256",
          "name": "tokenId",
          "type": "uint256"
        }
      ],
      "name": "transferNFT",
      "outputs": [],
      "stateMutability": "nonpayable",
      "type": "function"
    }
  ],
  "bytecode": "0x608060405234801561001057600080fd5b5060405161081738038061081783398181016040528101906100329190610152565b826000806101000a81548173ffffffffffffffffffffffffffffffffffffffff021916908373ffffffffffffffffffffffffffffffffffffffff16021790555081600160006101000a81548173ffffffffffffffffffffffffffffffffffffffff021916908373ffffffffffffffffffffffffffffffffffffffff16021790555080600260006101000a81548173ffffffffffffffffffffffffffffffffffffffff021916908373ffffffffffffffffffffffffffffffffffffffff16021790555033600360006101000a81548173ffffffffffffffffffffffffffffffffffffffff021916908373ffffffffffffffffffffffffffffffffffffffff1602179055505050506101ea565b60008151905061014c816101d3565b92915050565b60008060006060848603121561016757600080fd5b60006101758682870161013d565b93505060206101868682870161013d565b92505060406101978682870161013d565b9150509250925092565b60006101ac826101b3565b9050919050565b600073ffffffffffffffffffffffffffffffffffffffff82169050919050565b6101dc816101a1565b81146101e757600080fd5b50565b61061e806101f96000396000f3fe608060405234801561001057600080fd5b50600436106100625760003560e01c8063117803e314610067578063249e10c51461008557806369f1495c146100a15780639420b149146100bf578063c161309a146100db578063cbcf4f2e146100f9575b600080fd5b61006f610117565b60405161007c91906104e9565b60405180910390f35b61009f600480360381019061009a919061043c565b61013d565b005b6100a9610283565b6040516100b691906104e9565b60405180910390f35b6100d960048036038101906100d4919061043c565b6102a7565b005b6100e36103db565b6040516100f091906104e9565b60405180910390f35b610101610401565b60405161010e91906104e9565b60405180910390f35b600360009054906101000a900473ffffffffffffffffffffffffffffffffffffffff1681565b600360009054906101000a900473ffffffffffffffffffffffffffffffffffffffff1673ffffffffffffffffffffffffffffffffffffffff163373ffffffffffffffffffffffffffffffffffffffff16146101cd576040517f08c379a00000000000000000000000000000000000000000000000000000000081526004016101c490610564565b60405180910390fd5b600160009054906101000a900473ffffffffffffffffffffffffffffffffffffffff1673ffffffffffffffffffffffffffffffffffffffff166323b872dd30600360009054906101000a900473ffffffffffffffffffffffffffffffffffffffff16846040518463ffffffff1660e01b815260040161024e93929190610504565b600060405180830381600087803b15801561026857600080fd5b505af115801561027c573d6000803e3d6000fd5b5050505050565b60008054906101000a900473ffffffffffffffffffffffffffffffffffffffff1681565b600160009054906101000a900473ffffffffffffffffffffffffffffffffffffffff1673ffffffffffffffffffffffffffffffffffffffff16631d669fb16040518163ffffffff1660e01b8152600401600060405180830381600087803b15801561031157600080fd5b505af1158015610325573d6000803e3d6000fd5b5050505060008054906101000a900473ffffffffffffffffffffffffffffffffffffffff1673ffffffffffffffffffffffffffffffffffffffff1663a9059cbb600260009054906101000a900473ffffffffffffffffffffffffffffffffffffffff16836040518363ffffffff1660e01b81526004016103a692919061053b565b600060405180830381600087803b1580156103c057600080fd5b505af11580156103d4573d6000803e3d6000fd5b5050505050565b600160009054906101000a900473ffffffffffffffffffffffffffffffffffffffff1681565b600260009054906101000a900473ffffffffffffffffffffffffffffffffffffffff1681565b600081359050610436816105d1565b92915050565b60006020828403121561044e57600080fd5b600061045c84828501610427565b91505092915050565b61046e81610595565b82525050565b6000610481602483610584565b91507f4f6e6c79206f776e65722063616e2061737365737320746869732066756e637460008301527f696f6e2e000000000000000000000000000000000000000000000000000000006020830152604082019050919050565b6104e3816105c7565b82525050565b60006020820190506104fe6000830184610465565b92915050565b60006060820190506105196000830186610465565b6105266020830185610465565b61053360408301846104da565b949350505050565b60006040820190506105506000830185610465565b61055d60208301846104da565b9392505050565b6000602082019050818103600083015261057d81610474565b9050919050565b600082825260208201905092915050565b60006105a0826105a7565b9050919050565b600073ffffffffffffffffffffffffffffffffffffffff82169050919050565b6000819050919050565b6105da816105c7565b81146105e557600080fd5b5056fea26469706673582212205af727c0894acdefb4d89ba7b18a0918e316859517d381976e000d648d04516f64736f6c63430008000033",
  "linkReferences": {},
  "deployedLinkReferences": {}
}